{
  "_format": "hh-sol-artifact-1",
  "contractName": "Presale",
  "sourceName": "contracts/Presale.sol",
  "abi": [
    {
      "inputs": [
        {
          "internalType": "contract IERC20",
          "name": "_tokenAddress",
          "type": "address"
        },
        {
          "internalType": "uint256",
          "name": "_price",
          "type": "uint256"
        }
      ],
      "stateMutability": "nonpayable",
      "type": "constructor"
    },
    {
      "inputs": [
        {
          "internalType": "address",
          "name": "owner",
          "type": "address"
        }
      ],
      "name": "OwnableInvalidOwner",
      "type": "error"
    },
    {
      "inputs": [
        {
          "internalType": "address",
          "name": "account",
          "type": "address"
        }
      ],
      "name": "OwnableUnauthorizedAccount",
      "type": "error"
    },
    {
      "anonymous": false,
      "inputs": [
        {
          "indexed": true,
          "internalType": "address",
          "name": "previousOwner",
          "type": "address"
        },
        {
          "indexed": true,
          "internalType": "address",
          "name": "newOwner",
          "type": "address"
        }
      ],
      "name": "OwnershipTransferred",
      "type": "event"
    },
    {
      "anonymous": false,
      "inputs": [
        {
          "indexed": false,
          "internalType": "address",
          "name": "buyer",
          "type": "address"
        },
        {
          "indexed": false,
          "internalType": "uint256",
          "name": "price",
          "type": "uint256"
        },
        {
          "indexed": false,
          "internalType": "uint256",
          "name": "tokenValue",
          "type": "uint256"
        }
      ],
      "name": "tokenPurchased",
      "type": "event"
    },
    {
      "inputs": [
        {
          "internalType": "address payable",
          "name": "_newSeller",
          "type": "address"
        }
      ],
      "name": "UpdateSeller",
      "outputs": [],
      "stateMutability": "nonpayable",
      "type": "function"
    },
    {
      "inputs": [
        {
          "internalType": "contract IERC20",
          "name": "_tokenAddress",
          "type": "address"
        }
      ],
      "name": "WithdrawToken",
      "outputs": [
        {
          "internalType": "bool",
          "name": "",
          "type": "bool"
        }
      ],
      "stateMutability": "nonpayable",
      "type": "function"
    },
    {
      "inputs": [],
      "name": "buy",
      "outputs": [
        {
          "internalType": "bool",
          "name": "",
          "type": "bool"
        }
      ],
      "stateMutability": "payable",
      "type": "function"
    },
    {
      "inputs": [],
      "name": "owner",
      "outputs": [
        {
          "internalType": "address",
          "name": "",
          "type": "address"
        }
      ],
      "stateMutability": "view",
      "type": "function"
    },
    {
      "inputs": [],
      "name": "price",
      "outputs": [
        {
          "internalType": "uint256",
          "name": "",
          "type": "uint256"
        }
      ],
      "stateMutability": "view",
      "type": "function"
    },
    {
      "inputs": [],
      "name": "renounceOwnership",
      "outputs": [],
      "stateMutability": "nonpayable",
      "type": "function"
    },
    {
      "inputs": [],
      "name": "seller",
      "outputs": [
        {
          "internalType": "address payable",
          "name": "",
          "type": "address"
        }
      ],
      "stateMutability": "view",
      "type": "function"
    },
    {
      "inputs": [
        {
          "internalType": "uint256",
          "name": "_newprice",
          "type": "uint256"
        }
      ],
      "name": "setPrice",
      "outputs": [],
      "stateMutability": "nonpayable",
      "type": "function"
    },
    {
      "inputs": [],
      "name": "tokenAddress",
      "outputs": [
        {
          "internalType": "contract IERC20",
          "name": "",
          "type": "address"
        }
      ],
      "stateMutability": "view",
      "type": "function"
    },
    {
      "inputs": [],
      "name": "tokenForSale",
      "outputs": [
        {
          "internalType": "uint256",
          "name": "",
          "type": "uint256"
        }
      ],
      "stateMutability": "view",
      "type": "function"
    },
    {
      "inputs": [],
      "name": "tokenSold",
      "outputs": [
        {
          "internalType": "uint256",
          "name": "",
          "type": "uint256"
        }
      ],
      "stateMutability": "view",
      "type": "function"
    },
    {
      "inputs": [
        {
          "internalType": "address",
          "name": "newOwner",
          "type": "address"
        }
      ],
      "name": "transferOwnership",
      "outputs": [],
      "stateMutability": "nonpayable",
      "type": "function"
    },
    {
      "inputs": [
        {
          "internalType": "contract IERC20",
          "name": "_tokenAddress",
          "type": "address"
        }
      ],
      "name": "updateTokenAddress",
      "outputs": [],
      "stateMutability": "nonpayable",
      "type": "function"
    },
    {
      "stateMutability": "payable",
      "type": "receive"
    }
  ],
  "bytecode": "0x608060405234801561001057600080fd5b506040516114e83803806114e8833981810160405281019061003291906102c9565b33600073ffffffffffffffffffffffffffffffffffffffff168173ffffffffffffffffffffffffffffffffffffffff16036100a55760006040517f1e4fbdf700000000000000000000000000000000000000000000000000000000815260040161009c9190610318565b60405180910390fd5b6100b48161015260201b60201c565b5081600160006101000a81548173ffffffffffffffffffffffffffffffffffffffff021916908373ffffffffffffffffffffffffffffffffffffffff1602179055508060028190555061010b61021660201b60201c565b600460006101000a81548173ffffffffffffffffffffffffffffffffffffffff021916908373ffffffffffffffffffffffffffffffffffffffff1602179055505050610333565b60008060009054906101000a900473ffffffffffffffffffffffffffffffffffffffff169050816000806101000a81548173ffffffffffffffffffffffffffffffffffffffff021916908373ffffffffffffffffffffffffffffffffffffffff1602179055508173ffffffffffffffffffffffffffffffffffffffff168173ffffffffffffffffffffffffffffffffffffffff167f8be0079c531659141344cd1fd0a4f28419497f9722a3daafe3b4186f6b6457e060405160405180910390a35050565b600033905090565b600080fd5b600073ffffffffffffffffffffffffffffffffffffffff82169050919050565b600061024e82610223565b9050919050565b600061026082610243565b9050919050565b61027081610255565b811461027b57600080fd5b50565b60008151905061028d81610267565b92915050565b6000819050919050565b6102a681610293565b81146102b157600080fd5b50565b6000815190506102c38161029d565b92915050565b600080604083850312156102e0576102df61021e565b5b60006102ee8582860161027e565b92505060206102ff858286016102b4565b9150509250929050565b61031281610243565b82525050565b600060208201905061032d6000830184610309565b92915050565b6111a6806103426000396000f3fe6080604052600436106100c65760003560e01c8063715018a61161007f5780639d76ea58116100595780639d76ea5814610255578063a035b1fe14610280578063a6f2ae3a146102ab578063f2fde38b146102c9576100d5565b8063715018a6146101ea5780638da5cb5b1461020157806391b7f5ed1461022c576100d5565b806308551a53146100da5780632c9c965b146101055780633970f6981461012e578063519ee19e146101595780635c4c9f6f146101845780636691461a146101c1576100d5565b366100d5576100d36102f2565b005b600080fd5b3480156100e657600080fd5b506100ef610566565b6040516100fc9190610afb565b60405180910390f35b34801561011157600080fd5b5061012c60048036038101906101279190610b47565b61058c565b005b34801561013a57600080fd5b506101436105d8565b6040516101509190610b8d565b60405180910390f35b34801561016557600080fd5b5061016e61069f565b60405161017b9190610b8d565b60405180910390f35b34801561019057600080fd5b506101ab60048036038101906101a69190610bf8565b6106a5565b6040516101b89190610c40565b60405180910390f35b3480156101cd57600080fd5b506101e860048036038101906101e39190610bf8565b6107d8565b005b3480156101f657600080fd5b506101ff610824565b005b34801561020d57600080fd5b50610216610838565b6040516102239190610c6a565b60405180910390f35b34801561023857600080fd5b50610253600480360381019061024e9190610cb1565b610861565b005b34801561026157600080fd5b5061026a610873565b6040516102779190610d3d565b60405180910390f35b34801561028c57600080fd5b50610295610899565b6040516102a29190610b8d565b60405180910390f35b6102b36102f2565b6040516102c09190610c40565b60405180910390f35b3480156102d557600080fd5b506102f060048036038101906102eb9190610d84565b61089f565b005b60008073ffffffffffffffffffffffffffffffffffffffff16610313610925565b73ffffffffffffffffffffffffffffffffffffffff1603610369576040517f08c379a000000000000000000000000000000000000000000000000000000000815260040161036090610e0e565b60405180910390fd5b60006103806002543461092d90919063ffffffff16565b905061038a6105d8565b8111156103cc576040517f08c379a00000000000000000000000000000000000000000000000000000000081526004016103c390610ea0565b60405180910390fd5b600460009054906101000a900473ffffffffffffffffffffffffffffffffffffffff1673ffffffffffffffffffffffffffffffffffffffff166108fc479081150290604051600060405180830381858888f19350505050158015610434573d6000803e3d6000fd5b50600160009054906101000a900473ffffffffffffffffffffffffffffffffffffffff1673ffffffffffffffffffffffffffffffffffffffff166323b872dd600460009054906101000a900473ffffffffffffffffffffffffffffffffffffffff1661049e610925565b846040518463ffffffff1660e01b81526004016104bd93929190610ee1565b6020604051808303816000875af11580156104dc573d6000803e3d6000fd5b505050506040513d601f19601f820116820180604052508101906105009190610f44565b5080600360008282546105139190610fa0565b925050819055507fc843cf018ee36ea53c37378c68f0173ada796ec8a894a1de90449e03c36cec65610543610925565b6002548360405161055693929190610fd4565b60405180910390a1600191505090565b600460009054906101000a900473ffffffffffffffffffffffffffffffffffffffff1681565b61059461096f565b80600460006101000a81548173ffffffffffffffffffffffffffffffffffffffff021916908373ffffffffffffffffffffffffffffffffffffffff16021790555050565b6000600160009054906101000a900473ffffffffffffffffffffffffffffffffffffffff1673ffffffffffffffffffffffffffffffffffffffff1663dd62ed3e600460009054906101000a900473ffffffffffffffffffffffffffffffffffffffff16306040518363ffffffff1660e01b815260040161065992919061100b565b602060405180830381865afa158015610676573d6000803e3d6000fd5b505050506040513d601f19601f8201168201806040525081019061069a9190611049565b905090565b60035481565b60006106af61096f565b60008273ffffffffffffffffffffffffffffffffffffffff166370a08231306040518263ffffffff1660e01b81526004016106ea9190610c6a565b602060405180830381865afa158015610707573d6000803e3d6000fd5b505050506040513d601f19601f8201168201806040525081019061072b9190611049565b90508273ffffffffffffffffffffffffffffffffffffffff1663a9059cbb600460009054906101000a900473ffffffffffffffffffffffffffffffffffffffff16836040518363ffffffff1660e01b815260040161078a929190611076565b6020604051808303816000875af11580156107a9573d6000803e3d6000fd5b505050506040513d601f19601f820116820180604052508101906107cd9190610f44565b506001915050919050565b6107e061096f565b80600160006101000a81548173ffffffffffffffffffffffffffffffffffffffff021916908373ffffffffffffffffffffffffffffffffffffffff16021790555050565b61082c61096f565b61083660006109f6565b565b60008060009054906101000a900473ffffffffffffffffffffffffffffffffffffffff16905090565b61086961096f565b8060028190555050565b600160009054906101000a900473ffffffffffffffffffffffffffffffffffffffff1681565b60025481565b6108a761096f565b600073ffffffffffffffffffffffffffffffffffffffff168173ffffffffffffffffffffffffffffffffffffffff16036109195760006040517f1e4fbdf70000000000000000000000000000000000000000000000000000000081526004016109109190610c6a565b60405180910390fd5b610922816109f6565b50565b600033905090565b600080830361093f5760009050610969565b818361094b919061109f565b905081838261095a9190611110565b1461096857610967611141565b5b5b92915050565b610977610925565b73ffffffffffffffffffffffffffffffffffffffff16610995610838565b73ffffffffffffffffffffffffffffffffffffffff16146109f4576109b8610925565b6040517f118cdaa70000000000000000000000000000000000000000000000000000000081526004016109eb9190610c6a565b60405180910390fd5b565b60008060009054906101000a900473ffffffffffffffffffffffffffffffffffffffff169050816000806101000a81548173ffffffffffffffffffffffffffffffffffffffff021916908373ffffffffffffffffffffffffffffffffffffffff1602179055508173ffffffffffffffffffffffffffffffffffffffff168173ffffffffffffffffffffffffffffffffffffffff167f8be0079c531659141344cd1fd0a4f28419497f9722a3daafe3b4186f6b6457e060405160405180910390a35050565b600073ffffffffffffffffffffffffffffffffffffffff82169050919050565b6000610ae582610aba565b9050919050565b610af581610ada565b82525050565b6000602082019050610b106000830184610aec565b92915050565b600080fd5b610b2481610ada565b8114610b2f57600080fd5b50565b600081359050610b4181610b1b565b92915050565b600060208284031215610b5d57610b5c610b16565b5b6000610b6b84828501610b32565b91505092915050565b6000819050919050565b610b8781610b74565b82525050565b6000602082019050610ba26000830184610b7e565b92915050565b6000610bb382610aba565b9050919050565b6000610bc582610ba8565b9050919050565b610bd581610bba565b8114610be057600080fd5b50565b600081359050610bf281610bcc565b92915050565b600060208284031215610c0e57610c0d610b16565b5b6000610c1c84828501610be3565b91505092915050565b60008115159050919050565b610c3a81610c25565b82525050565b6000602082019050610c556000830184610c31565b92915050565b610c6481610ba8565b82525050565b6000602082019050610c7f6000830184610c5b565b92915050565b610c8e81610b74565b8114610c9957600080fd5b50565b600081359050610cab81610c85565b92915050565b600060208284031215610cc757610cc6610b16565b5b6000610cd584828501610c9c565b91505092915050565b6000819050919050565b6000610d03610cfe610cf984610aba565b610cde565b610aba565b9050919050565b6000610d1582610ce8565b9050919050565b6000610d2782610d0a565b9050919050565b610d3781610d1c565b82525050565b6000602082019050610d526000830184610d2e565b92915050565b610d6181610ba8565b8114610d6c57600080fd5b50565b600081359050610d7e81610d58565b92915050565b600060208284031215610d9a57610d99610b16565b5b6000610da884828501610d6f565b91505092915050565b600082825260208201905092915050565b7f4e756c6c20616464726573732063616e27742062757920746f6b656e73000000600082015250565b6000610df8601d83610db1565b9150610e0382610dc2565b602082019050919050565b60006020820190508181036000830152610e2781610deb565b9050919050565b7f52656d61696e696e6720746f6b656e73206c657373207468616e20627579696e60008201527f672076616c756500000000000000000000000000000000000000000000000000602082015250565b6000610e8a602783610db1565b9150610e9582610e2e565b604082019050919050565b60006020820190508181036000830152610eb981610e7d565b9050919050565b6000610ecb82610d0a565b9050919050565b610edb81610ec0565b82525050565b6000606082019050610ef66000830186610ed2565b610f036020830185610c5b565b610f106040830184610b7e565b949350505050565b610f2181610c25565b8114610f2c57600080fd5b50565b600081519050610f3e81610f18565b92915050565b600060208284031215610f5a57610f59610b16565b5b6000610f6884828501610f2f565b91505092915050565b7f4e487b7100000000000000000000000000000000000000000000000000000000600052601160045260246000fd5b6000610fab82610b74565b9150610fb683610b74565b9250828201905080821115610fce57610fcd610f71565b5b92915050565b6000606082019050610fe96000830186610c5b565b610ff66020830185610b7e565b6110036040830184610b7e565b949350505050565b60006040820190506110206000830185610ed2565b61102d6020830184610c5b565b9392505050565b60008151905061104381610c85565b92915050565b60006020828403121561105f5761105e610b16565b5b600061106d84828501611034565b91505092915050565b600060408201905061108b6000830185610ed2565b6110986020830184610b7e565b9392505050565b60006110aa82610b74565b91506110b583610b74565b92508282026110c381610b74565b915082820484148315176110da576110d9610f71565b5b5092915050565b7f4e487b7100000000000000000000000000000000000000000000000000000000600052601260045260246000fd5b600061111b82610b74565b915061112683610b74565b925082611136576111356110e1565b5b828204905092915050565b7f4e487b7100000000000000000000000000000000000000000000000000000000600052600160045260246000fdfea264697066735822122068ef24e248a1e9cb23f81c2388c08889b7b19cadb49150cead6d807f0c9e014764736f6c634300081b0033",
  "linkReferences": {},
  "deployedLinkReferences": {}
}